:020000040800F2
:1030000000000120D14800086D420008714200080C
:1030100075420008794200087D4200080000000067
:1030200000000000000000000000000081420008D5
:103030008542000800000000894200088D42000817
:1030400019490008194900081949000819490008D8
:1030500019490008194900081949000819490008C8
:1030600019490008194900081949000819490008B8
:1030700019490008194900081949000819490008A8
:10308000A1420008AD42000819490008B9420008F1
:10309000C5420008194900081949000819490008E3
:1030A0001949000819490008194900081949000878
:1030B000194900081949000819490008D1420008B7
:1030C0001949000819490008194900081949000858
:1030D0001949000819490008DD420008194900088B
:1030E0001949000819490008194900081949000838
:1030F0001949000819490008194900081949000828
:103100001949000819490008194900081949000817
:103110001949000819490008194900081949000807
:1031200019490008194900081949000819490008F7
:10313000000000000000000000000000000000008F
:10314000000000000000000000000000000000007F
:10315000000000000000000000000000000000006F
:10316000000000000000000000000000000000005F
:10317000000000000000000000000000000000004F
:10318000000000000000000000000000000000003F
:10319000000000000000000000000000000000002F
:1031A000000000000000000000000000000000001F
:1031B000000000000000000000000000000000000F
:1031C00000000000000000000000000000000000FF
:1031D00000000000000000000000000000000000EF
:0431E0005FF8E0F1C3
:1031E400034613F8012B002AFBD1181A0138704743
:1031F4000348044B834202D0034B03B11847704782
:103204008003002080030020000000000548064BD6
:103214001B1AD90F01EBA301491002D0034B03B1D0
:10322400184770478003002080030020000000003E
:1032340010B5064C237843B9FFF7DAFF044B13B1FA
:103244000448AFF300800123237010BD80030020E5
:103254000000000000B0000808B5054B1BB105498B
:103264000548AFF30080BDE80840FFF7CFBF00BFBB
:10327400000000008403002000B0000830B50125E0
:1032840083B0294C06F04AFB002006F0E3FA2378C9
:10329400122103EBC303812B9ABFC3F18203C3F34F
:1032A4004700002006F004FE94E8060001231F48AE
:1032B40006F0E2FD23781E21DB00812B9ABFC3F1C7
:1032C4008203C3F34700002006F0F2FD94E80600F1
:1032D4000123174806F0D0FD3B2377223421082030
:1032E400009506F069FE0A2406F028FD39232246DB
:1032F40036212046009506F0E1FDA20704F1010302
:103304000AD0DCB2762CF1D106F018FDC82001F009
:103314004FFB00BF03B030BD06F010FD01340F2099
:1033240001F046FBE4B2E1E7C802002028B000083F
:1033340034B0000838B50546002006F08BFA28465C
:10334400FFF74EFF104C1821237803FB00F080B2E6
:10335400812896BFC0F182000020C0F3470006F028
:10336400A7FD94E806000123284606F085FD06F033
:10337400E5FC0122054B1A7001F014FB044B00F626
:10338400B830186038BD00BFC00200209C03002084
:10339400A00300202DE9F0410646002006F05AFA69
:1033A4000025002406EB05175FFA85F802E00134D6
:1033B400802C11D0E343C4F3CC02BA5C03F00703BE
:1033C40042FA03F3DB07F2D5E0B2012241460134AD
:1033D40006F0C4FC802CEDD10135402DE1D106F07E
:1033E400ADFC0122044B1A7001F0DCFA034A00F62A
:1033F400B8301060BDE8F0819C030020A0030020D9
:103404002DE9F8434FF00008002006F023FAFF26C8
:1034140080254346DFF85090A5F17F045FFA88F7D2
:1034240005E0A54211D0E30819F8033001346242E3
:1034340002F007021341DB07F3D5301901223946A4
:10344400C0B206F08BFCA542EDD108F10108B8F139
:10345400400F05D0EB0819F80330803E8035DBE7D8
:10346400BDE8F84306F06ABCF8B0000808B5084B9C
:103474001A7802B908BD01F095FA064A044B12689D
:103484009042F7D300201870BDE80840FFF7B8BF9A
:103494009C030020A003002010B50C4B86B00DF156
:1034A400080C0FCB8CE80F0001F03AFD02A801A92B
:1034B40001F0DCFD044601F047FD0CB906B010BD77
:1034C400034800F07FF806B010BD00BF18B0000834
:1034D40040B00008F0B5054683B001F100640191E5
:1034E40001F01EFD0199134E6D1A134FAE1905F12B
:1034F400774504F500340F4405F57E0502E00234F7
:10350400A74211D0315D2A5D002302EB0122012084
:10351400214692B201F058FD0028F0D00748023449
:1035240000F050F8A742EDD103B0BDE8F04001F03F
:103534000BBD00BF0100FEF71000020854B00008E4
:103544000023012210B5012096B04FF480310224EB
:10355400CDE90E33CDE91133CDE90233CDE904339E
:10356400CDE90733CDE909330193069310920B9308
:103574004FF480324FF48013CDE90C010CA813945E
:103584001492159304F000F808B172B6FEE70346EE
:103594000F22039305934FF48063214601A80294FC
:1035A4000192049304F022FA08B172B6FEE71022E5
:1035B4000B9006A8069204F0D9FA08B172B6FEE799
:1035C40016B010BD00B583B0044606F01BFD08B16B
:1035D40072B6FEE7019006F03DF90199022006F06B
:1035E40067FC0A4A0123154606CA094806F044FC4A
:1035F4000921022006F05CFCD5E9001201232046D3
:1036040006F03AFC06F09AFBE2E700BFD002002085
:1036140068B000082DE9F04F00248FB001F0A4F940
:10362400FFF78EFFCDE90644CDE90844AA4D4FF4D7
:103634003041AB69224643F01003AB61AB69A74844
:1036440003F010030293029BAB69012643F02003AD
:10365400AB61AB69022703F020030393039BAB69BF
:1036640043F00403AB61AB6903F004030493049BCC
:10367400AB6943F00803AB61AB6903F0080305933E
:10368400059B01F07DFE22464FF49071944801F0B1
:1036940077FE224645F21E01924801F071FE4FF476
:1036A40030438E4806A9CDE906360894099701F0FF
:1036B4003DFD4FF480420023884806A9CDE9062346
:1036C400089601F033FD48F251420023844806A9CC
:1036D400CDE90623089601F029FD4FF49073804844
:1036E40006A9CDE90636CDE9084701F01FFD45F2EC
:1036F4001E037C4806A90693CDE90764099701F0E7
:1037040015FD4AF220420023764806A9CDE9062396
:10371400089601F00BFD6B69314633436B616B69AD
:103724002246334010200193019B01F065F91020DB
:1037340001F094F922462146112001F05DF911208F
:1037440001F08CF96849694B0C220B6047F612238F
:103754000846C1E90134C1E90344C1E906444A61A8
:1037640004F0C4FA08B172B6FEE7614B614AC3E9DA
:1037740005001A60604AC3E907005A604FF48042AA
:103784009860D86018461A6101F00CFF04460028BE
:1037940040F01D8106F03CFC22464FF480514F4816
:1037A40001F0EEFDFFF76AFD0122032306A94D484F
:1037B400CDE906230894099401F0B8FC42F20F7293
:1037C400A9694E4B41F40071A961696821F4404133
:1037D4006960696841F4004169609C605C60996853
:1037E40041F0010199600094009B934206DC00BF04
:1037F400009B01330093009B9342F8DD3F4A93689A
:1038040043F00803936093681907FCD491683B4B19
:1038140041F0040191609C6814F00404FBD1384A1F
:103824009968B2F8E02041F00101FF2A996040F262
:10383400D08000F0BDFD4FF47A7001F0B9F8012298
:103844004FF48051254801F09BFDC82001F0B0F8E9
:1038540001222C4B20461A70FFF7D2FD2A4DDFF8C7
:10386400AC802B4F2B4EDFF8B0A0DFF890B0FFF701
:10387400FDFD00F0D3FE01F095F82B68C01A0B286B
:10388400F5D901F08FF808212860DBF81020234BCC
:1038940022F0E062CBF81020DBF8102042F0E06266
:1038A400CBF81020CBF82C40CBF83410CBF80040E8
:1038B400DBF8082042F00102CBF80820DBF80820EE
:1038C40042F48012CBF80820DBF8082042F480028E
:1038D400CBF8082026E000BF001002400010014091
:1038E40000080140000C0140000400200044004096
:1038F4008804002000540040801A0600002401407F
:1039040000F7FF1FB4030020B0030020AC03002025
:10391400AA030020A8030020A4030020400D0300F4
:10392400013B6BD0DBF800209207F9D5DBF84C3073
:103934009AB2632A66D9B2F57A6F5DD8A2F16403AC
:10394400C3EBC303324AC3EB0313A2FB03235A0999
:10395400134698F80010002944D02E4AB7F8009076
:10396400127809EB490999444FEAA909A7F800908C
:10397400C9F347194A4543D034BFA9EB0202A2EB6D
:103984000902D2B2032A06D833780133DBB2042BFE
:1039940033707FF66CAF347001F004F8DAF800305D
:1039A400C01A1D287FF663AF1B4B1B686BB31878D6
:1039B400012838BF01204A460B2100F073FA154B49
:1039C40083F8009000F0EEFFCAF800004FE772B6EB
:1039D400FEE74FF48073114906A806F051FE06A8CD
:1039E400FFF7F0FD31700B49C2F347120A70012151
:1039F400994688F80010B4E740F6FF731A46A8E722
:103A0400347034E700231A46A3E70120D3E700BF4C
:103A14001F85EB51A90300200400002070B00008AA
:103A240072B6FEE7407800F080007047C07800EB83
:103A340080004000704700BF2DE9F041114E124D47
:103A4400317812484B1C153101E0994217D0A0FB84
:103A54000324240904EB8404A3EB84042A5D0133C6
:103A6400002AF2D0A0460A4F07EB0417394609484A
:103A74002A5D04F06DF90028F8D186F80080BDE8CD
:103A8400F08100BF68010020DC040020CDCCCCCC48
:103A9400F004002000040020064B02681B689A42D0
:103AA40000D070470021044B044A1B78D154FFF71F
:103AB400C3BF00BF0004002068010020DC04002014
:103AC40008B572B6194BDFF868C01878DFF864E0FF
:103AD400421C153001E0904224D0AEFB02131B09B6
:103AE40003EB8303A2EB83031CF8031001320029C8
:103AF400F1D101204FF60F42FC210CF803000E48CF
:103B04001B0102600D4AD15462B6042106F012FB77
:103B14000B4B93F83D30202B01D0002008BDFFF75C
:103B24008BFFFAE762B64FF0FF3008BD6801002052
:103B3400DC040020CDCCCCCC30060020F0040020E6
:103B44000004002010B5044672B6164BDFF858E0A6
:103B540093F800C015480CF101020CF1150C01E0BA
:103B6400944518D0A0FB02131B0903EB8303A2EBBB
:103B740083031EF8031001320029F1D10C491A0104
:103B84008C5401220EF8032062B60A4B93F83D30A0
:103B9400202B02D010BD62B610BDBDE81040FFF767
:103BA4004BBF00BF68010020DC040020CDCCCCCC8E
:103BB400F00400200004002008B572B6194BDFF8A9
:103BC40068C01878DFF864E0421C153001E09042C8
:103BD40024D0AEFB02131B0903EB8303A2EB830384
:103BE4001CF8031001320029F1D101204FF60F22F5
:103BF400FA210CF803000E481B0102600D4AD1544F
:103C040062B6042106F096FA0B4B93F83D30202B54
:103C140001D0002008BDFFF70FFFFAE762B64FF0AE
:103C2400FF3008BD68010020DC040020CDCCCCCCE2
:103C340030060020F00400200004002070B5044683
:103C44000D4672B6264BDFF89CE093F800C0264878
:103C54000CF101020CF1150C01E094453BD0A0FBE2
:103C640002131B0903EB8303A2EB83031EF8031067
:103C740001320029F1D10E221C491D480A70227814
:103C84001E0102F00F0262F01F024A7000EB031CD7
:103C9400B5B940228D70CA70B1F801108153032167
:103CA4008CF802200EF8031062B604210F4806F0C7
:103CB40041FA104B93F83D30202B09D0002070BD01
:103CC400627802F07F028A70A27802F07F02E2E753
:103CD400FFF7B2FEF2E762B64FF0FF3070BD00BFEF
:103CE40068010020DC040020CDCCCCCC30060020C0
:103CF400F00400200004002070B505460C4672B69E
:103D04002D4BDFF8B8E093F800C02D480CF1010208
:103D14000CF1150C01E094454AD0A0FB02131B09D9
:103D240003EB8303A2EB83031EF803100132002983
:103D3400F1D124491E0101EB031C24BB48F2080005
:103D4400214A1080287800F00F0060F07F00507046
:103D5400687800F07F009070D470B2F801201B489E
:103D64008A5303220EF8032083788CF8023062B65B
:103D74000421013806F0DEF9154B93F83D30202B71
:103D840013D0002070BD49F209000F4A1080287832
:103D940000F00F0060F06F005070687800F07F0052
:103DA4009070AC7804F07F04D6E7FFF745FEE8E7AF
:103DB40062B64FF0FF3070BD68010020DC040020C3
:103DC400CDCCCCCCF00400203006002031060020FD
:103DD400000400202DE9F0410D46044619B990F97C
:103DE40003308B4243DB72B6284BDFF8A4E093F830
:103DF40000C028480CF101020CF1150C01E06245E9
:103E04003FD0A0FB02131B0903EB8303A2EB830344
:103E14001EF8031001320029F1D11F4E94F801C09D
:103E24004FEA03180CF07F0C06EB031715BBE1787F
:103E340001F07F010B2203251848027022780EF846
:103E4400035002F00F0363F04F0380F802C0437085
:103E5400B0F80130C17026F80830B97062B6042198
:103E640006F068F90E4B93F83D30202B06D0002065
:103E7400BDE8F081A17801F07F01DBE7FFF7DCFD0D
:103E8400F5E762B64FF0FF30F2E700BF68010020AB
:103E9400DC040020CDCCCCCCF00400203006002083
:103EA4000004002070B50D46164672B6264B274C0A
:103EB40093F800E0264A0EF1010C0EF1150E01E014
:103EC400E6453CD0A2FB0C131B0903EB8303ACEBCC
:103ED4008303E15C0CF1010C0029F1D110280246A6
:103EE40028BF1022012A4FF0030038BF01224FF0EF
:103EF4000B0EE054013A174805F07F0162F04F02BF
:103F0400817042701449B0F8012006F07F0C1C0146
:103F140001EB03130A5380F800E080F803C083F830
:103F240002C062B6042106F005F90C4B93F83D304B
:103F3400202B01D0002070BDFFF77EFDFAE762B6AA
:103F44004FF0FF3070BD00BF68010020DC0400208A
:103F5400CDCCCCCC30060020F0040020000400209E
:103F640070B5044682B072B6484BDFF824E193F88A
:103F740000C048480CF101020CF1150C01E0624547
:103F84007FD0A0FB02131B0903EB8303A2EB830383
:103F94001EF8031001320029F1D194F902203E48A1
:103FA4008A424FEA031600EB03154EDADFF8ECC041
:103FB4002A46614694F90300002816DB0E460B20BE
:103FC40006F8040B2078033200F00F0060F04F0075
:103FD40048704FF020008870E078C870B1F8011084
:103FE40002F8010C22F8031C31460C20002608704C
:103FF400207800F00F0060F03F0048706078CE70C9
:1040040000F07F008870B1F8010022F8020B521B07
:104014000EF8032062B60431A1EB0C011F48C9B2AB
:1040240006F088F81E4B93F83D30202B26D0637899
:1040340008211C4A03F07F03684606F0EFFA68463D
:10404400FFF778F9002002B070BD0B22DFF84CC0F6
:104054008CF8002022788CF8021002F00F0262F033
:104064004F028CF80120BCF80110A27881538CF81F
:104074000320AA700CF10401EA1C9BE7FFF7DCFCA7
:10408400D5E762B64FF0FF30DDE700BF68010020DE
:10409400DC040020CDCCCCCCF00400203006002081
:1040A4000004002084B000080E4B82B09A690E49C7
:1040B40042F001029A619A6902F001020092009AA8
:1040C400DA6942F08052DA61DB6903F080530193CC
:1040D400019B4B6823F0E06343F000734B6002B034
:1040E400704700BF0010024000000140002310B5DB
:1040F4000168284A86B09142CDE90233CDE9043300
:1041040001D006B010BD02F5DE32044690691223D8
:1041140040F00800906190694FF0030CC02200F059
:1041240008000090009802A91B48CDE90223CDF8AD
:1041340014C000F0FBFF102000231849184A4860FF
:10414400D0698B6040F40010D061D269C1E90433B6
:10415400C1E906338023DFF84CC002F4001208469C
:104164000192C1F800C0CB60019A00F09BFC0B499E
:1041740058B9002261634C621F20114600F03CFCD8
:104184001F2000F06BFC06B010BDFFF749FC03498B
:10419400EFE700BF00540040000C0140440400203D
:1041A400001002406C000240002310B501682A4A46
:1041B40086B09142CDE90233CDE9043301D006B093
:1041C40010BD02F5E632D169044641F40031D161F3
:1041D400D169042001F4003100910099916941F002
:1041E400040191619269022102F004020192019A90
:1041F4000322CDE90201194802A9059200F096FFB5
:1042040008220023CDE902230023144802A90493C1
:1042140000F08CFF0023802210201149C1E90232F2
:10422400C1E90433C1E906330E4B486008460B600C
:1042340000F038FC0A4958B9002261634C62262018
:10424400114600F0D9FB262000F008FC06B010BD92
:10425400FFF7E6FB0249EFE7004400400008014095
:10426400B803002080000240FEE700BFFEE700BF65
:10427400FEE700BFFEE700BFFEE700BF704700BFD8
:10428400704700BF704700BF08B500F07FFB00F027
:1042940029F8BDE8084005F023BB00BF014800F041
:1042A40023BD00BF44040020014800F01DBD00BF31
:1042B400B8030020014802F017BB00BF1012002011
:1042C400014802F011BB00BF10120020014801F0A8
:1042D4006FBD00BF88040020014803F03DBE00BF4D
:1042E40000040020274B1B78002B46D0264A137865
:1042F400002B3ED1254B26489B68264930B523F434
:10430400F743B0F800E0B1F800C023F02E030380B7
:1043140083EA0E0343EA0C031F480B8083681F489B
:10432400DFF87CC0048823F4B743BCF800E023F032
:104334005F030380634043EA0E03ACF80030194B7B
:10434400DFF864E09B681948BEF80040058803F470
:104354008043AEF8003063402B430380B1F800E0A3
:10436400BCF80030018843EA0E030B439BB22BB91F
:1043740030BD1378013B1370704770470A231370E4
:1043840030BD00BFB40300204307002000080140F3
:104394001002002048070020000C01400E020020FB
:1043A40046070020001001400C02002044070020B2
:1043B4002DE9F0411D4E28253746DFF87480FB7C3B
:1043C400A5F1280423F00103FB74D8F8000020446D
:1043D400FFF728FB18B1FB7C43F00103FB740434A2
:1043E400A542F2D12835B5F5B47F07F11407E6D11B
:1043F40000234FF0FF310F4A42F833100133202BD2
:10440400FAD10D4C318AF0680122143600F0B8FF5D
:10441400A642F7D101220421084800F0B1FFBDE80B
:10442400F04101220221054800F0AABF6C010020DE
:1044340000000020400600200C020020000C014077
:10444400F8B54FF0FF370F4C04F5807654F8045C50
:1044540000F0A8FA854211D225682B7803F0F00306
:10446400902B05D0E02B07D100212846FFF7E6FB6F
:1044740000212846FFF740FC44F8047C0834B44289
:10448400E4D1F8BD4406002000230F4A02E00133C2
:10449400202B18D052F8331002EBC30C0131F6D1A3
:1044A40010B582B00193CCF80400009000F07AFAC1
:1044B40004460098FFF7BAFA019B034A201842F811
:1044C400330002B010BD70474006002000B50378E9
:1044D40083B003F0F003B02B2BD00CD8202B24D0C6
:1044E400902B31D0102B04D1FFF766FB0346013328
:1044F40011D003B000BDC02B13D0E02BF9D1CDE90E
:104504000001FFF78FFA50B3DDE90001FFF796FBD6
:1045140003460133EDD1214803B05DF804EBFFF706
:1045240051B8FFF71DFD0346F3E7FFF7C9FA034649
:10453400EFE7CDE90001FFF775FA18B3DDE90001F3
:10454400FFF748FC0346E4E7CDE90001FFF76AFA08
:10455400F0B1DDE90001FFF7CFFB0346D9E7012104
:104564000098FFF76BFB0346009A1046CDE9003232
:10457400FFF75CFA009B0028CBD00198FFF784FF7B
:10458400009BC6E701210098FFF724FC0346C0E71F
:1045940001210098FFF7B0FBE5E700BF8CB00008ED
:1045A40000B5037883B003F0F003B02B18D0E02BF0
:1045B40007D0902B03D10190FFF734FA08B303B06E
:1045C40000BD0190FFF72EFA0028F8D10198FFF7FB
:1045D4002DFA0028F3D101460198FFF72FFB08E0DC
:1045E4000190FFF71FFA0028E9D101460198FFF76F
:1045F400F1FB0130E3D1084803B05DF804EBFEF7AA
:10460400E1BF0198FFF712FA0028D8D101460198BA
:10461400FFF772FBEDE700BF8CB000082DE9F8430B
:1046240000240126DFF8F8817E4D7F4F04E0013439
:10463400082C08F1140855D0D8F80830B8F804202C
:1046440019880A42F3D01988D8F8000021EA020236
:104654001A80B8F8041000F08DFE95F800C0002808
:104664004CD198F8132098F8121006FA0CF342FA79
:104674000CF2594012F0010288F812105FD00B407E
:10468400DAB2B2FA82F2B8F81010D8F80C00520973
:1046940000F076FE062C08D8DFE804F09EA204079A
:1046A400A6AA9A006148FEF775FE4FF00009287823
:1046B40098F812C004EBC0033A6803EB830306FACC
:1046C40000F109EBC3000CEA0101104409F10409EB
:1046D400FFF7FCFEB9F1280FE9D10134082C08F1E9
:1046E4001408A9D1FFF7ACFE514B1A88510654D4D3
:1046F400504B1A88520533D4BDE8F88398F8133028
:1047040043FA0CF3D80721D54FF0000901E095F8DE
:1047140000C004EBCC0398F81210386803EB830351
:1047240009EBC30306FA0CFC01EA0C01184409F175
:104734000409FFF735FFB9F1280FE8D177E7B8F896
:104744001010D8F80C0000F01BFEA3E70122B8F803
:104754001010D8F80C0000F013FE95F800C0D3E751
:104764001A884FF4806122F4806233481A8000F082
:1047740001FE002849D1314C024604212E4800F0A4
:10478400FFFD21780029B7D12D48FFF79FFE2D4862
:10479400FEF700FE01232370AEE71A88402122F0C1
:1047A400400229481A8000F0E5FD28BB274C024648
:1047B4000221214800F0E4FD2178002998D1244801
:1047C400FFF784FE2348FEF7E5FD012323708FE7FE
:1047D4002148FEF7DFFD68E72048FEF7DBFD64E7CC
:1047E4001F48FEF7D7FD60E71E48FEF7D3FD5CE7E0
:1047F4001D48FEF7CFFD58E7012202210E4800F0C4
:10480400BFFD0022114B1A7072E7012204210A48ED
:1048140000F0B6FD0022094B1A70BDE8F88300BF12
:104824006C010020420700200000002000C900089D
:104834004807002046070020000C014041070020E3
:10484400FCB4000800B9000800080140400700203B
:10485400F8B4000800B5000800BD000800D1000845
:1048640000CD000800C5000800C100080F4908B5C4
:104874000F4ADFF840C00B68A2EB0C022BB11844BE
:1048840090420AD80860184608BDDFF82CC0634679
:1048940018449042C1F800C0F4D905F035FF0C2249
:1048A4004FF0FF330260184608BD00BF4C070020DC
:1048B400000001200004000048160020014B024AB9
:1048C4009A60704700ED00E0003000080C480D4984
:1048D4000D4A002302E0D458C4500433C4188C4257
:1048E400F9D30A4A0A4C002301E013600432A242BD
:1048F400FBD3FFF7E3FF05F00DFFFEF78BFE7047D8
:10490400000000208003002014F000088003002031
:1049140044160020FEE700004FF47A7310B50F49E7
:10492400044609780E4AB3FBF1F0126882B0B2FB78
:10493400F0F000F0A1F808B90F2C02D9012002B060
:1049440010BD0246019021464FF0FF3000F054F8AC
:10495400044B01981C6002B010BD00BF1802002077
:10496400140200201C020020074A08B51368032023
:1049740043F01003136000F02DF80420FFF7CCFF80
:10498400FFF792FB002008BD00200240034A044BBD
:1049940011681B780B441360704700BF5007002058
:1049A40018020020014B1868704700BF5007002010
:1049B40038B50446FFF7F6FF631C054602D0044BE6
:1049C4001B781C44FFF7EEFF401BA042FAD338BD0E
:1049D400180200204FF6FF0C06490302CA6803F4CC
:1049E400E06302EA0C02134343F0BF6343F4003371
:1049F400CB60704700ED00E0164B00B5DB68C3F3F5
:104A04000223A3F1030CBCF1040F19D84FF0FF3EAD
:104A1400C3F107030EFA03F3DB430EFA0CFE22EA9A
:104A24000E02194001FA0CF1114300284FEA01115A
:104A34000ADB00F1604000F5614080F8001300BD1E
:104A440000220F239446ECE7034B00F00F00C31839
:104A5400197600BD00ED00E0FCEC00E0002807DB67
:104A6400012300F01F01034A40098B4042F8203023
:104A7400704700BF00E100E00138B0F1807F01D34E
:104A8400012070474FF0E02300224FF0F00C072183
:104A94005861034880F823C09A6110461961704731
:104AA40000ED00E0002837D01C4A0346006810B52A
:104AB40090421B4A27D91B49DFF86CE04118A2FB3E
:104AC4000121090989000268C3F83CE04FF4807EA3
:104AD4001964002122F47F5CD3E901242243DC68B9
:104AE4002CF0300C22431C6922435C6922439C69EC
:104AF4002243DC69224342EA0C020260A3F820E06C
:104B04000846996310BD0949DFF824E04118A2FB67
:104B1400012109098900D6E70120704707040240F2
:104B2400CDCCCCCCF8FBFDBF00040240F8FFFDBFA8
:104B34000000024090F820C0BCF1010F40D010B535
:104B440096461A46012390F821C080F820309C45EF
:104B540004D0002380F82030022010BD022380F806
:104B640021300023046C836303680CFA04F4D3F843
:104B740000C02CF0010CC3F800C0D0F83CC0CCF845
:104B840004405A604268102AC26A0BBFC3F808E0A6
:104B94009960D960C3F80CE04AB11A6842F00E0279
:104BA4001A601A68002042F001021A6010BD1A68E7
:104BB40022F004021A601A6842F00A021A60F0E74E
:104BC4000220704790F821200346022A06D00422CE
:104BD4009A630022012083F8202070474FF0010CD3
:104BE4001A680020116821F00E011160116821F08B
:104BF40001011160D3E90F120CFA02F24A6000229B
:104C040083F821C083F82020704700BF08B590F8CE
:104C140021200346022A03D0042201209A6308BDFE
:104C240002682C481168824221F00E01116011685B
:104C340021F0010111601AD927498A4230D0143178
:104C44008A4236D014318A423AD014318A4214BF8F
:104C54004FF480324FF4805220494A604FF48071FF
:104C64005A6B19840AB118469047002008BD1C49A4
:104C74008A4217D014318A421DD014318A421CD082
:104C840014318A4212D014318A421CD014318A421F
:104C94001CD0824214BF4FF480324FF0807202E085
:104CA4000122D9E701220F494A60D7E74FF4805225
:104CB400F9E71022D0E71022F5E74FF48072F2E70B
:104CC4004FF48072C8E74FF48032ECE74FF480125F
:104CD400E9E700BF800002400804024000040240EB
:104CE4000800024000000240042210B5C46B016CAD
:104CF400D4F800C003688A4012EA0C0FD3F800E02D
:104D040027D01EF0040F24D01A68910603D41A6821
:104D140022F004021A60674A93425ED902F5627275
:104D2400934200F0A5801432934200F0A98014321B
:104D3400934200F098801432934214BF4FF48023BE
:104D44004FF480435C4A5360C36A002B40F0818077
:104D540010BD02228A4012EA0C0F23D01EF0020F6B
:104D640020D01A68920606D401211A6822F00A0299
:104D74001A6080F821104F4A934249D902F56272B1
:104D8400934277D01432934266D01432934279D04E
:104D94001432934214BF4FF400334FF40053464A85
:104DA40053604FE008228A4012EA0C0FD0D01EF064
:104DB400080FCDD01A684FF4807C22F00E021A60DE
:104DC4000123026B03FA01F161608363A0F820C040
:104DD400002ABDD0BDE81040104738498B4245D069
:104DE40014318B424AD014318B4239D014318B4266
:104DF4004ED014318B4251D014318B4254D0934253
:104E040014BF4FF480224FF080622D4B5A609BE711
:104E14002A498B4230D014318B421FD014318B423B
:104E240033D014318B4236D014318B4239D0143103
:104E34008B423CD0934214BF4FF400324FF00072C7
:104E44001F4B5A600022836A80F82020002B3FF415
:104E54007FAFBDE8104018472023A0E72022EFE7EA
:104E64004FF48062D1E74FF480636BE70422CCE710
:104E7400042367E7022392E70222E1E74022C4E722
:104E840040235FE74FF4007389E74FF40072D7E7DC
:104E94004FF48042B9E74FF40052D1E74FF4802237
:104EA400B3E74FF40032CBE74FF48002ADE74FF4A1
:104EB4000012C5E7800002400004024008000240DE
:104EC4000000024090F82100704700BF124BDB68DD
:104ED40013F0100305D010231049CA6942F00202EE
:104EE400CA610D4AD268500706D50C4943F0040341
:104EF400CA6942F00102CA61074AD169C90708D5E3
:104F04000648C16941F00401C161D16921F0010180
:104F1400D161014AD3607047002002405807002045
:104F2400064B186910F0800006D00549054A5960FF
:104F34005A601869C0F3C010704700BF00200240D7
:104F440023016745AB89EFCD034A0020136943F081
:104F540080031361704700BF0020024038B5044647
:104F6400FFF720FD174AD368DD070CD5651C1CD05C
:104F740005462CB3FFF716FD401BA04220D8114A6A
:104F8400D368DB07F6D40F4BDA68900644BF2022BF
:104F9400DA600C4BDA68D1060ED4DA69D2070BD486
:104FA400D86810F0040007D138BDD368D907EAD512
:104FB400D368D907F9D4E6E7FFF788FF012038BDA5
:104FC400032038BD002002402DE9F84F254E357EE0
:104FD400012D43D01C46012305464CF250308A462D
:104FE40017463376FFF7BAFFA0BB012D03D0022D7D
:104FF40014BF042502254FF00009C846DFF868B045
:105004000AEB4505C9F12003C6F81C8027FA09F00C
:1050140004FA03F31843A9F12002DBF8103024FA50
:1050240002F240EA020C43F00103CBF810304CF2D8
:105034005030AAF800C0FFF791FFDBF810300AF1F6
:10504400020A23F0010309F11009CBF8103008B962
:10505400AA45D7D100233376BDE8F88F0220BDE8F6
:10506400F88F00BF58070020002002402DE9F843C4
:105074002C4E337E012B52D00123337603688046B5
:10508400022B89464CF250302ED0FFF767FF0746BB
:1050940068BB4FF0FF33C9F80030D8E9025305EB81
:1050A400C3239D4223D2204C07E005F50065D8E9CF
:1050B400023203EBC223AB421AD9F76123694CF2E3
:1050C400503043F0020323616561236943F04003D8
:1050D4002361FFF743FF236923F0020323610028C0
:1050E400E3D0C9F8005003E0FFF738FF20B10120F6
:1050F40000233376BDE8F8830B4CF06123694CF24E
:10510400503043F004032361236943F040032361D7
:10511400FFF724FF236923F004032361E8E7022057
:10512400BDE8F88358070020002002402DE9F04F25
:105134000C6883B0002C00F0AE8000228646012566
:105144004FF00F0892461346814F06E0013334FABC
:1051540003F002F1040200F09E8005FA03F030EA45
:10516400040C00EA0406F1D14C68122C00F29B8076
:10517400122C0DD8DFE804F0A90AB5DB0C0C0C0CDA
:105184000C0C0C0C0C0C0C0C0CBDB900D1F80CA0C4
:10519400FF2E99BFF44614460EF1040CA2F120042C
:1051A400DCF8000008FA04F920EA09000AFA04F419
:1051B4002043CCF800004868C40072D5BC6903F0F1
:1051C400030944F00104BC61BC694FEA890904F095
:1051D40001040194019C23F0030404F1804404F5C8
:1051E4008034D4F808C008FA09FB2CEA0B0CDFF869
:1051F40064B1DE451DD00BF5806BDE457DD0DFF854
:1052040058B1DE4566D0DFF854B1DE4500F0928037
:10521400DFF84CB1DE4500F09480DFF848B1DE459C
:105224000CBF4FF0050B4FF0060B0BFA09F94CEAD3
:10523400090CC4F808C0DFF830C110F4803FDCF872
:10524400004014BF3443B443CCF80040DFF818C125
:1052540010F4003FDCF8044014BF3443B443CCF8EA
:105264000440DFF804C110F4801FDCF8084014BFC8
:105274003443B443CCF808403B4C10F4001FE068BE
:105284000CD03043E0600C68013334FA03F002F1CF
:1052940004027FF462AF03B0BDE8F08F20EA060099
:1052A400E0600C6852E7DFF8C4C064450DD02BD829
:1052B400ACF5801C644508D00CF5702C644504D012
:1052C400ACF5801C64457FF463AF8C6834BB4FF04D
:1052D400040A5DE74FF0020B0BFA09F94CEA090CDA
:1052E400A7E7C86800F1080A52E7C86800F10C0A89
:1052F4004EE7C86800F1040A4AE74FF0010B0BFAC5
:1053040009F94CEA090C94E7DFF864C06445DCD081
:105314000CF5803C64457FF43BAFD6E7012C4FF09D
:10532400080A0CBFCEF81000CEF8140030E74FF096
:10533400000A2DE74FF0030B0BFA09F94CEA090CAC
:1053440077E74FF0040B0BFA09F94CEA090C70E704
:105354000010024000080140001001400014014008
:1053640000180140001C014000040140000022100C
:10537400000031108368194214BF012000207047D7
:1053840002B909040161704710B51446024684B09D
:10539400D2F800E0DEF8140021EA000C1FFA8CF0C9
:1053A40090B1DEF81400400510D4601C04D028E04D
:1053B400DEF814305C0509D4DEF8143021EA030366
:1053C4009BB2002BF4D1184604B010BD00216FF439
:1053D40080642020DEF8003043F40073CEF80030FF
:1053E400CEF81440116382F83D0082F83E10136C2D
:1053F40043F0040313640023012082F83C3004B01A
:1054040010BDCDE902130192FFF7CCFADDE90121C9
:10541400039BC01AA04201D8002CB9D1002320213B
:10542400136382F83D1082F83E30136C0B4313640F
:10543400E1E700BF10B51446024682B0136858690C
:10544400000635D4586940051DD4481C15D0CDE953
:105454000021FFF7A7FA0199001B8842009A01D89E
:105464000029EBD100232021136382F83D1082F838
:105474003E30136C0B43136414E059690C0617D4C3
:1054840059694905F9D500216FF4806C2020C3F8CF
:1054940014C0116382F83D0082F83E10136C43F08F
:1054A400040313640023012082F83C3002B010BDD1
:1054B400002002B010BD00BFF0B5164602681F46BA
:1054C400136885B043F48073136053690446D807A6
:1054D4000A9D04D46B1C10D15369DB07FCD501F081
:1054E400FE01116120462A460B9B2D49FFF74CFF14
:1054F40088B10123184605B0F0BD0191FFF752FAB7
:105504000B9B2268C01A85421BD30199CDB1536904
:10551400D807F2D5E3E7236803905969204603913D
:105524009B69294603930B9A039BFFF783FF03466A
:1055340060BB012F20681BD1F2B20261184605B08E
:10554400F0BD00212023216384F83D3084F83E100F
:10555400236C84F83C1043F0200323641368DD05B6
:1055640002D54FF4007323640323184605B0F0BD3D
:105574002946350A05610B9A20460193FFF75AFF25
:10558400019B18B92168F2B20A61B3E7236C042BBA
:10559400AFD12268136843F400731360A9E700BF16
:1055A40002000100002800F0BE8038B590F83D30BC
:1055B400044603F0FF02002B00F0A180242223689C
:1055C40084F83D201A6822F001021A601A6842F435
:1055D40000421A601A6822F400421A6002F0A6FA25
:1055E400524B62689A4226D8514B984226D95300AE
:1055F400504A40F6FC7EA2FB002C421EB2FBF3F2A2
:1056040023684FEA9C405968013021F03F0141EA88
:105614009C415960196A013221F03F01014319622A
:10562400D96912EA0E0F21F44F4121F0FF0176D01F
:10563400C2F30B0239E0404B984201D8012038BD37
:105644003C4BDFF8F8C0A3FB003E4FF496734FEADF
:105654009E4103FB01F12368ACFB01C1D3F804C0F4
:1056640089092CF03F0C4CEA9E4CC3F804C0D3F8D3
:1056740020C001312CF03F0C41EA0C011962D969B8
:10568400A56821F44F41013821F0FF01002D3BD0E2
:1056940002EB820202EB8202B0FBF2F0421CC2F384
:1056A4000B02002A3DD042F440420A43DA611968F1
:1056B400D4E9072021F0C00102430A431A60996823
:1056C400D4E9030221F40341024321F0FF010A4318
:1056D4009A60D868D4E9052120F0FF000A43024308
:1056E400DA601A68002142F001021A602023216462
:1056F40084F83D30216384F83E10084638BD80F8B4
:105704003C20FEF7F3FC59E702EB4202B0FBF2F255
:105714000132C2F30B0222B142F40042C5E7042273
:10572400C3E70122C1E70120704700BFA086010042
:105734007F841E0083DE1B43FF083D00D34D6210AF
:105744002DE9F04304469846002385B002930E46A3
:105754001746BDF83450FFF725F994F83D30202B57
:1057640026D15B4B5B4A1B688146DB08A2FB032303
:105774001B0A03EB830303EB8303029303E0226816
:105784009369990718D5029B013B0293029B002B56
:10579400F5D12022236384F83D2084F83E3084F838
:1057A4003C30236C13432364012005B0BDE8F0832F
:1057B400022005B0BDE8F08394F83C30012BF7D00B
:1057C400012384F83C301368DB0703D4136843F0E7
:1057D40001031360402121204FF0000C136823F4CF
:1057E400006313600C9B84F83D0084F83E10C4F8F9
:1057F40040C065856362638D37499BB22385E1624E
:10580400002B2ED0606B002845D03449C0F82CC042
:1058140081623349C0F834C0016310320C99FFF738
:1058240089F9054648BB2320434600903A46314651
:105834002046CDF80490FFF73FFE002837D12368B7
:1058440003905A6903929A6984F83C000392039A7C
:105854005A6842F480725A605A6842F400625A608C
:10586400A3E7202284F83D2084F83E3084F83C30BD
:10587400236C43F04003236496E720234FF0000297
:1058840084F83D3084F83E20236C84F83C2043F0B7
:105894001003236488E7202384F83D3084F83E0015
:1058A400236C84F83C0043F0800323647CE7606B42
:1058B400FFF7ACF92368616B1A688D6222F4806289
:1058C4001A6065851A68258522F001021A606BE763
:1058D4001402002089B5F8140000FFFF055A0008DF
:1058E400C9590008704700BF704700BF704700BF28
:1058F400704700BF704700BF704700BF08B590F8FD
:105904003D20016D034659B9C26C0168012A826CBD
:1059140036D0C2F307220A61026D0132026508BD66
:10592400016D012924D0016D0229F8D1D2B2222AB5
:1059340030D0418D89B249BB418D89B20029EED165
:10594400212AECD10268D2F804C02CF4E06CC2F82D
:1059540004C0D2F800C04CF4007CC2F800C020227D
:10596400016380F83D2080F83E1003F05FFF08BD1E
:10597400826C0168D2B20A61026D0132026508BD0F
:10598400D2B20A61026D0232026508BD212A0AD030
:105994005B8D08BD01680A6842F480720A60026D7A
:1059A4000132026508BD416A026811F8010B1061F9
:1059B4005A8D5962013A5A8508BD00BF704700BF2D
:1059C400704700BF406A08B5436B0BB100229A626E
:1059D400836B0BB100229A6200224FF0200C016805
:1059E4000B6823F480630B60428580F83DC080F827
:1059F4003E20036C43F010030364FFF7E1FF08BD8E
:105A040010B5406A82B090F83D20036890F83E10CB
:105A1400D0F82CE0CCB25968D2B221F4407159606C
:105A2400416B19B14FF0000CC1F828C0816B19B15A
:105A34004FF0000CC1F828C002F02101212953D0F5
:105A440002F02201222937D090F83E20002A31D0DA
:105A5400428D92B2012A59D05A681EF5803F22F431
:105A640040725A6008D0BEF1080F05D0BEF12A4F2B
:105A740002D0BEF1200F03D11A6842F400721A60FA
:105A84000022596821F480515960596821F4006159
:105A940059604285036C002B3DD1202180F83D10D4
:105AA40090F83E10402943D0122380F83E2003632F
:105AB400FFF71AFF02B010BD202CC5D1D3F804C0E3
:105AC4002A2A2CF4006CC3F804C04FF0000CA0F890
:105AD4002AC015D12823016380F83D300190FFF7D7
:105AE40007FF019803680BE0D3F804C0292A2CF4BB
:105AF400006CC3F804C04FF0000CA0F82AC00DD00D
:105B04005A6842F440725A6002B010BD1A6822F416
:105B140080621A60A0E7FFF753FFCBE728230163F5
:105B240080F83D300190FFF7E1FE01980368E7E754
:105B340080F83E200363FFF741FFBBE7704700BFD7
:105B440000213E4B3E4A1B6810B5DB08A2FB032331
:105B54001B0A406A82B003EB83030191C3EBC303C6
:105B640090F83DC00268019305E0019B013B01935D
:105B740013689B0506D5019B002BF6D1036C43F0FB
:105B840020030364D0E90D1381B34FF0000EC1F874
:105B940028E013B31468C3F828E024F48064146084
:105BA400A0F82AE0C1F834E000215963136823F017
:105BB4000103136090F83D30602B2ED00CF0280CBC
:105BC400BCF1280F1CD02022002380F83D2080F84F
:105BD4003E30FFF7F5FE02B010BDD2F800E02EF41F
:105BE400806EC2F800E043854B63DFE703B3D2F86D
:105BF40000E099622EF4806EC2F800E04185D3E79C
:105C04000021136843F001031360136843F48063B5
:105C14001360016380F83DC0DBE70023202280F895
:105C24003D2080F83E300364FFF788FF02B010BDCA
:105C3400116821F4806111604385B7E714020020E4
:105C440089B5F81410B590F83D2090F83E3004461C
:105C5400102BD2B239D0D9B2402936D002F0280163
:105C6400282923683CD05968080507D4602A05D040
:105C74002021002284F83D1084F83E200022226373
:105C84005A6812F4006233D194F83D10602974D03C
:105C94005A69500605D51A69636A1A70636A013332
:105CA40063622046FFF78CFE236C190704D0226838
:105CB400536823F4E063536094F83D30226CDBB204
:105CC400520701D5282B2ED010BD222AC6D1236815
:105CD4001A6822F400621A605A681205C8D5CDE722
:105CE4000022226384F83D105A6812F40062CBD07B
:105CF4005A68606B22F400625A6090F82130012BDC
:105D04001ED0294B4363FEF781FF0028CCD020210D
:105D14002268606B136823F00103136084F83D105C
:105D2400436B9847C0E70023202220492046E162C4
:105D3400236384F83D2084F83E30FFF7DDFD10BD79
:105D4400A06B194B4363FEF761FF0028ACD02368B6
:105D54005A69510606D51A69636A1A70626A236819
:105D64000132626220211A68A06B22F001021A60DB
:105D740084F83D10436B984796E7202184F83D1042
:105D840022645A69520606D51A69636A1A70626AED
:105D94002368013262621A68204622F001021A6006
:105DA400FFF7CCFE80E700BF455B00080000FFFF63
:105DB40030B5026803465468D0F82CE090F83E10E1
:105DC40090F83D00102991B0C0B25FFA81FC26D052
:105DD400BCF1400F23D0196C002900F0E1804FF092
:105DE400000C516911F0020E00F09E80A50540F1EF
:105DF4009D80196C09B1D2F818C093F83D1001F0D8
:105E04002801282900F0478200210E9150690E9044
:105E1400926983F83C100E920E9B11B030BD9169CB
:105E24000D46516911F0010F1BD1BEF52A0FF4D0B4
:105E3400BEF12A4FF1D011F0080E39D014F4007FCE
:105E44003AD0596C586BC9B21161002800F0108225
:105E5400816A002900F00C82536843F400635360A4
:105E6400DBE714F4007F27D0D96AB1F52A0F00F0DC
:105E74000882D96AB1F12A4F04BF0821D96293F884
:105E84003E10402900F000821969B1F5804F00F0FE
:105E9400DE81196D002900F06B81196D0129BCD1D7
:105EA4005B6CDB1103F0060343F0F1031361B4E709
:105EB40011F0020F40F045816D0775D5D2F804E06A
:105EC4001EF4006FA9D101F0040E090640F15881B7
:105ED400650540F15581BEF1000F40F0558193F8FE
:105EE4003D101C8D93F83E00C9B2D3F82CC0C0B24B
:105EF400002C40F0A582212900F06C8340288CD12D
:105F040022298AD1598D89B2002975D093F83E107F
:105F1400402900F04381596A11F8010B10615A8D30
:105F24005962013A5A8578E7CD066AD400F0F70C35
:105F3400BCF1210F01F0040000F0BE80490640F1DD
:105F4400F180650540F1EE80002840F0EE8093F882
:105F54003D00598DC0B289B200293FF45EAF11698A
:105F64005A6A11705A8D596A013A5A855A8D01310B
:105F740092B25962002A7FF450AF2A287FF44DAFC1
:105F84004FF0220C2824196818464A6822F48062CB
:105F94004A60C3F830C083F83D40FFF7A9FC3CE7F2
:105FA400D2F818C051691DE7506800053FF535AFB8
:105FB40001F00400490640F1F780650540F1F480E2
:105FC400002840F0F48093F83D1022297FF425AF97
:105FD400598D89B2032940F2288311695A6A1170D4
:105FE4005A8D596A013A5A855A8D013192B2032A5F
:105FF40059627FF412AF1A68536823F480635360C4
:106004000BE7A50592D593F83D405168E4B221F41D
:10601400E0615160CDF83CE051690F91116841F0A5
:10602400010111600F99116821F4806111605168B8
:10603400090500F1D9805A8D92B202B31A685169E8
:106044004D0709D511695A6A11705A6A598D501C45
:1060540001391A68586259855169480608D5116989
:106064005A6A1170596A5A8D0131013A59625A8536
:106074005A8D92B21AB11A6C42F004021A641A6C64
:10608400002A40F0DE802A2C00F06D8193F83D2038
:10609400282A00F05B811A6B222A02D0222C7FF47A
:1060A400BCAE002220211A63184683F83D1083F801
:1060B4003E20FFF71DFCB0E6090627D5650525D56A
:1060C40038BB93F83D00598DC0B289B200293FF422
:1060D400A4AE596A11F8014B14615962598D013902
:1060E4005985598D89B200297FF497AE29287FF408
:1060F40094AE28245168184621F480615160C3F895
:1061040030C083F83D40FFF7F1FB86E600283FF4FA
:1061140084AEA0057FF581AE598D89B200293FF484
:106124007CAEF8E600283FF478AEA1057FF575AEA5
:10613400598D89B200293FF470AE11695A6A117001
:106144004BE014F4007F3FF4B7AE93F83E10DC6AE2
:10615400D3F830C093F83D00C9B2222800F0DA80A9
:10616400CDF830E053690C9393690C930C9B54E67F
:106174005B6CDB1103F0060343F0F00313614CE6A0
:10618400BEF1000F3FF449AEA4057FF546AE2128C9
:1061940000F02981BCF1400F7FF43FAE184611B0E6
:1061A400BDE83040FFF7AABB00283FF436AEA10596
:1061B4007FF533AEDC6A598D586A89B2042900F040
:1061C4000B81598D89B2032900F04C81598D89B214
:1061D400022900F07F8112690270596A5A8D0131D7
:1061E400013A59625A8518E604F0F70122296DD064
:1061F400586B016849685985598D89B219B1196C70
:1062040041F0040119645168019321F40061516063
:10621400FEF758FE0128019B0AD0586B994A426345
:10622400FEF7F4FC019B18B1586B426B9047019B3D
:106234005A8D92B2002A7FF401AF1A6C002A3FF4FF
:1062440025AF184611B0BDE83040FFF7FBBC93F80A
:106254003D102129596C16BF41F0010101F0FE01E6
:10626400C9B21161596B19B1896A00297FF4F4AD7F
:106274009B6B002B3FF4D1AD9B6A002B7FF4ECADFC
:10628400CBE50121D962FAE5196D5B6CC9B903F05C
:10629400FE031361C1E5002450681CF0800F20F454
:1062A40080605060CCF380010CBFDA689A6981F099
:1062B40001011846C9B292B283F83C40FFF71AFBB9
:1062C400ABE543F00103DBB21361A6E5986B01680B
:1062D40049685985598D89B219B1196C41F0040185
:1062E40019645168019321F400615160FEF7EAFDDD
:1062F4000128019B3FF49FAE986B624A4263FEF70C
:1063040085FC019B00283FF496AE986B426B904746
:10631400019B90E6186D10B9402900F08A80196D30
:1063240021B91869B0F5404F00F08E80598D89B2BB
:1063340059BB0491516904919169049104991168BC
:1063440041F40071116000221A6566E500222021E3
:106354004D4C1846DC621A6383F83D1083F83E20E6
:10636400FFF7CAFA59E528211A63184683F83D1045
:106374000193FFF7BDFA019B93F83D20282AE5D04D
:106384001A6B222A7FF449AD8BE6598D89B2012913
:106394007ED0598D89B2022900F0DE80116841F463
:1063A40080611160516808050ED5202C00F2B1817E
:1063B400072C40F2A1813549083CE140C90703D5C7
:1063C400516841F48051516000210B9151690B9146
:1063D40092690B920B9AB6E7516821F4806151607F
:1063E40012690270F9E6D86A93F83D1021297FF406
:1063F40014AD598D89B200297FF48DAD082800F0C1
:10640400D180202800F0CE8010F5803F00F0CA80B3
:1064140050684FF0110C20F4E060202450601846BE
:10642400C3F830C083F83E1083F83D40FFF75AFAB2
:10643400F3E402905369029393690293029BECE4A0
:1064440021297FF45BAD5DE5039151690391916965
:1064540003910399116841F4807111601A6D01323E
:106464001A65DAE45168042C21F4806151603FF428
:10647400B2AE022C3FF4AFAE116821F4806111601A
:10648400A9E600BF455B00080000FFFF0101000111
:1064940014F5803F00F00281082C00F0B680202C17
:1064A40000F0B380BCF1120F00F05081102C00F208
:1064B4005081A0492141C90700F14B81116841F481
:1064C40080611160002107915169079192690792D7
:1064D400079A38E7013C0F2C09D8DFE804F0383379
:1064E4000833080808080808080808080838116864
:1064F40041F4007111602024126902705A8D1968E8
:10650400013A5A855A6A0969501C586251705A8D69
:106514001868013A5A854268596A22F44072013176
:106524005962426083F83D4093F83E20402A00F0CF
:10653400E7800021122283F83E1018461A63FFF701
:10654400D3F96AE4116841F480611160D3E71168FA
:1065540021F480611160CEE7102C4FF0000000F2AE
:10656400B1807549E140CD0740F1AC80116841F438
:10657400806111600A9051690A9191690A910A999E
:1065840051680D057FF5DFAE072C40F2DB806B49C7
:10659400083CE140CC077FF5D6AE516841F4805108
:1065A4005160D0E600212024506820F4E06050605F
:1065B400106840F400701060196383F83D4093F84C
:1065C4003E201846402A83F83E107FF42FAF03F094
:1065D4002DF922E4BCF1080FE4D0BCF1200FE1D086
:1065E4001CF5803FDED0A4464FF0110E20245168E4
:1065F400184621F4E0615160C3F830E083F83EC0EE
:1066040083F83D40FFF76EF907E40020116821F498
:106614008061116008905169089191690891089905
:10662400116841F4007111608DE6DC6A022C3FF4BC
:10663400F4AB01293FF6F1AB46F2A81440490D90A2
:106644000968B1FBF4F101EB81010D9104E01168DB
:1066540011F4007100F082800D9901390D910D9CA7
:10666400002CF4D14FF0200C196C586A41F0200131
:106674001964516821F4E061516012690270598D06
:106684005A6A013901325985184683F83DC05A6265
:1066940083F83E40FFF794F9FFF7BFBB116821F47C
:1066A40080611160516811F4006137D000201168D5
:1066B40021F48061116005905169059192690592F8
:1066C400059A40E6116841F400611160099051692E
:1066D4000991916909910999116821F48061116006
:1066E400516809057FF52FAE202C7FF64DAF14F5C8
:1066F400803F7FF428AE50E7012C7FF465AE5FE65F
:106704000022184683F83E201A63FFF757F9FFF773
:1067140084BB14F5803F7FF457AE51E6069151696E
:106724000691916906910699116841F4007111600E
:1067340009E600BFEBFFFEFF1400010001010001A8
:1067440014020020012C7FF4FEAD26E7012C7FF417
:106754005CAF116821F480611160B3E610685C6A73
:1067640020F480601060506820F4E060506012698A
:1067740022702024588D5A6A01385885013283F8D2
:106784003D405A6293F83E20402A08D0122283F8F2
:106794003E1018461A63FFF7A7F8FFF73EBB83F8CD
:1067A4003E1018461963FFF709F9FFF736BB00BF1F
:1067B40090F83D00704700BFF0B589B020B390F861
:1067C400A932044603F0FF02002B6DD003232546B3
:1067D40084F8A932206801F04BFD55F8107BEC4693
:1067E400AE46BEE80F00ACE80F00DEF80030261D10
:1067F400CCF8003096E80E00384601F027FD01463B
:1068040030B1022384F8A9320125284609B0F0BD2D
:106814000790206801F036FDD4F804C0BCF1000FE5
:106824002AD0079901270A46084602EB820304EBA3
:10683400C30302F1010E83F82820DA865FFA8EF290
:106844006245C3E90E0083F8297083F82B001864AD
:10685400EBD3002201EB810304EBC303481C83F850
:106864006811C1B26145C3E95E2283F8692183F8E6
:106874006B21C3F88021EDD30FCD6F460FC72B6872
:1068840020683B6096E80E0001F0FEFC05460028F7
:10689400B7D1012384F82400206884F8A93202F0D7
:1068A400C9FA284609B0F0BD80F8A82203F090FD8B
:1068B4008CE700BF90F8A832012B13D010B501214A
:1068C4000446006884F8A81201F0C8FC012120469F
:1068D40003F0A2FE206802F0ABFA002384F8A83289
:1068E400184610BD022070472DE9F041044684B0DB
:1068F400006802F0A1FA10F4004F206840F09F8075
:1069040002F09AFA450500F17F82206802F094FAB9
:106914004004236805D5B3F8442022F48042A3F848
:106924004420184602F088FA8104236805D5B3F898
:10693400442022F40052A3F84420184602F07CFAC2
:10694400C204236800F14982184602F075FA07056B
:106954003ED52168ADF1020308461A468C460DF176
:106964000E053CF804EB22F802EFAA42F9D1B1F883
:10697400402042F00102A1F84020B1F8402022F06A
:106984000102A1F84020B1F844205605FBD5B1F826
:10699400442022F48062A1F8442033F8022FAB4251
:1069A40020F8042BF9D1B1F84030204643F0080315
:1069B400A1F84030B1F8443023F40063A1F8443026
:1069C400B1F8403043F00403A1F8403003F05AFD1D
:1069D400206802F031FA820500F1F481206802F0A7
:1069E4002BFAC30506D52268B2F8443023F4807329
:1069F400A2F8443004B0BDE8F081B0F8503094F807
:106A040068219BB203EBC20300EB4303B3F80C34DD
:106A1400B4F86E21C3F30903C4F8843104F52C716E
:106A240002F020FA22682046138823F070031B0525
:106A34001B0D43F08003138003F0F2FC2068B0F8D0
:106A440044301A047FF55CAFB0F8441011F00F0520
:106A540057D111F01001038800F0848113F400650C
:106A6400CBD11B04EBD540F68F720388134043F05F
:106A740080030380B0F8503094F868219BB203EB94
:106A8400C20300EB4303B3F80C34C3F30903C4F8A3
:106A9400843193B1D4F87C1179B1B4F86E2102F049
:106AA400E1F9D4F87C31D4F88421204613442946F2
:106AB400C4F87C3103F0BCFC206803881F05BED4F5
:106AC400B0F85030D4F878219BB200F20C41002A7F
:106AD40040F02F82CA5A22F4F842CA52CA5A6FEAC4
:106AE40042426FEA5242CA52038823F4804323F09D
:106AF400700383F4405343F4004343F08003038062
:106B04009DE730F82560310400F1B380370696D54F
:106B140030F8253005EB850723F4E14323F07003B7
:106B24006FEA43436FEA534304EBC70720F8253069
:106B340097F82B30032B76D0002B74D0022B01D185
:106B4400F10570D505EB850206F4804C04EBC20216
:106B540016F04006E04697F828E0116C00F58063D3
:106B640000F08481B0F85060B6B206EBCE0602366F
:106B740033F81660C6F309068E4280F07982891BC9
:106B84001164BCF1000F0BD030F82E3023F4E04335
:106B940023F0700343F4404343F0800320F82E3085
:106BA40005EB850204EBC20292F84C30012B40F055
:106BB4004E82D36BD2F848C09919536CD1633344D5
:106BC4005364936B9C45C0F00A83ACEB0306966454
:106BD4009EB297F82920002A40F0F382B0F85020A2
:106BE40000F2044C92B294444FEA0E120CEB0E1EC7
:106BF400002B40F022833CF8023023F4F8432CF8B5
:106C040002303CF802306FEA43436FEA53432CF8F6
:106C1400023005EB850504EBC5023346128E02F003
:106C240011F9206813E2B0F8503097F828109BB29D
:106C340003EBC10300EB4303B3F8046405EB8503E2
:106C440004EBC3031A6CC6F30906B24240F2838014
:106C5400921B1A64DA6B01353244DA635A6C05EB21
:106C64008505324404EBC5015A6401F04DFD2068EA
:106C7400E5E630F8253005EB850223F070031B05AB
:106C84001B0D43F0800304EBC20220F8253092F878
:106C9400743192F868C1D2F87C1100F58067002B3A
:106CA40047D092F86B31022B00F04D8130F82C3034
:106CB40023F4E04323F0700343F4004343F0C003A0
:106CC40020F82C3092F868C130F82C3013F4804F3F
:106CD400B0F850309BB203EBCC0300F0B180023328
:106CE40037F81370C7F30907002F40F0F38105EB61
:106CF400850204EBC203D100D3F884213A44C3F8DB
:106D04008421D3F87C213A44C3F87C21D3F8802130
:106D140022B1D3F87831BB4240F2A08005EB850361
:106D240004EBC303204693F8681103F081FB206849
:106D3400ECE6B0F850309BB2063303EBCC0337F8E3
:106D44001370C7F30907002FD1D03B46B2F86E2168
:106D540002F088F8CBE7002220461A6403F072FBA5
:106D640020686CE623F4E14323F070036FEA4343A5
:106D74006FEA53430380B0F8503094F828209BB254
:106D840003EBC20300EB4303B3F80434E26BC3F335
:106D940009031A4420466364E26303F053FB94F846
:106DA40024302068002B3FF44AAE236C002B7FF480
:106DB40046AE94F8242042F08002A0F84C2084F8D7
:106DC40024303CE622682046B2F8443023F40073B1
:106DD400A2F8443003F040FB00E6B3F8402020461C
:106DE40022F00402A3F84020B3F8402022F0080265
:106DF400A3F8402003F056FB2368B3F8442022F4A0
:106E04008052A3F844209FE522682046B2F844301B
:106E140023F48063A2F8443003F022FB94F8A832F0
:106E2400012B3FF472AD002501232946206884F824
:106E3400A83284F8245001F0F5FF84F8A85264E5E0
:106E4400063337F81370C7F30907002F3FF44FAF29
:106E54003B46B2F8722102F005F848E701F5B47137
:106E64002068214401F050FC20684FE6B0F850C07F
:106E74001FFA8CFC0CEBCE0C0CF1060C33F81CC086
:106E8400CCF3090C8C4500F2A480A1EB0C01116435
:106E9400002900F09F80B8F1000F0BD130F82E309C
:106EA40023F4E04323F0700343F4404343F08003AE
:106EB40020F82E3005EB850204EBC20292F84C3028
:106EC400012B40F0C480D36B966C03EB0C01536C24
:106ED400D16363445364936B9E42C0F09581F61A68
:106EE40096641FFA83FC97F82920002A40F07E81DB
:106EF400B0F8502000F20C4692B216444FEA0E123B
:106F040006EB0E1E002B40F0B581B35A23F4F84370
:106F1400B352B35A6FEA43436FEA5343B35205EB98
:106F2400850504EBC5026346528E01F08BFF206891
:106F34008DE03E2A00F2D48002F0010505EB5202F6
:106F44009202CA52D0E516F4804EF046B0F850E0F2
:106F5400D2F880311FFA8EFE0EEBCC0E00F0CA8000
:106F64000EF1020E37F81EE0CEF3090E9E45774669
:106F740000F22081A3EB0E03C2F880316BB930F824
:106F84002C3023F4804323F0700383F4005343F440
:106F9400004343F0800320F82C3072060BD530F800
:106FA4002C3023F4E04323F0700343F4004343F014
:106FB400C00320F82C30BEF1000F3FF498AE05EB6F
:106FC400850204EBC2027346B2F8702101F04AFF55
:106FD4008DE6166497F82920002A40F0C380B0F8A3
:106FE400502000F2044692B216444FEA0E12B15AEF
:106FF40021F4F841B152B55A00F20C416FEA45450B
:107004006FEA5545B552B0F8500080B20144885A31
:1070140020F4F8408852885A6FEA40406FEA5040A2
:1070240088522046714603F00DFA2068B8F1000F2B
:107034000DD197F8282030F8223023F4E04323F0D0
:10704400700343F4404343F0800320F8223097F860
:10705400282030F8223023F4E04323F0400383F067
:10706400300343F4004343F0800320F82230E6E485
:107074000021116497F82920002A40F08880B0F894
:10708400502000F2044692B216444FEA0E12B15A4E
:1070940021F4F841B152B55A00F20C416FEA45456A
:1070A4006FEA5545B552B0F8500080B20144885A91
:1070B40020F4F8408852885A6FEA40406FEA504002
:1070C40088522046714603F0BDF92068B8F1000FDC
:1070D400BDD0AEE73B46B2F8702101F0C3FE06E630
:1070E4005509D606744A08BF05F1FF3542EA8522E0
:1070F400CA52F9E40EF1060E37F81E70C7F3090EF2
:107104009E4577465AD8A3EB0E03C2F880316BB97B
:1071140030F82C3023F4804323F0700383F40053BD
:1071240043F4004343F0800320F82C3073060BD45F
:1071340030F82C3023F4E04323F0700343F400438D
:1071440043F0C00320F82C30BEF1000F3FF4CFAD64
:1071540005EB850204EBC2027346B2F8722101F01A
:1071640081FEC4E5012A7FF45CAF0026B0F850101C
:1071740000F2044289B20A444FEA0E155653B0F89D
:10718400501000F20C4289B20A44565349E7012ACE
:1071940097D1B0F8505000F20442ADB22A444FEAFD
:1071A4000E169153B0F8505000F20C42ADB22A447E
:1071B400915386E70023C2F88031E0E6C2F880816B
:1071C400A6E7012A7FF425ADB0F8502000F204436D
:1071D40092B24FEA0E1E134423F80E6019E5BCF177
:1071E400000F16D1334682F84CC0F2E4012A7FF432
:1071F40096AEB0F8502000F20C4392B24FEA0E1E45
:10720400134423F80EC08AE60EBB634682F84C6032
:1072140069E6002382F84C30936497F829201FFA1A
:107224008CF6002ACDD16346B0F850C000F2044277
:107234001FFA8CFC624402EB0E1E3E2B24D803F092
:10724400010C0CEB53039B02AEF80030E1E4002385
:10725400936482F84C3097F829201FFA86FC002AA0
:10726400C4D13346B0F8506000F20C42B6B2324496
:1072740002EB0E1E3E2B13D803F0010606EB53035C
:107284009B02AEF800304AE64FEA531CDA060A4B7A
:1072940008BF0CF1FF3C43EA8C23AEF80030B8E49D
:1072A4005E09DB06044B08BF06F1FF3643EA86237A
:1072B400AEF8003033E600BF0080FFFF034690F8CD
:1072C400A802012812D04FF0010C00B5186883B051
:1072D40083F8241083F8A8C2019301F0A3FD0022CF
:1072E4001046019B83F8A82203B000BD022070471A
:1072F40010B501F0070E090682B02AD44FF000043D
:107304000EEB8E0C4FEACC0C0CF5B47184448CF863
:10731400694101440A614A7881F800E0CB700AB1FE
:10732400A1F80EE0022B04BF00230B7190F8A832E1
:10733400012B19D003460122006883F8A822019387
:1073440000F0B6FF00221046019B83F8A82202B089
:1073540010BD4FF0010C0EF1010101EB810100EBB6
:10736400C10181F801C0D5E7022002B010BD00BF01
:107374000B0601F0070220D44FF0000C02EB82034D
:10738400DB0003F5B4710144034483F869C10A7056
:1073940090F8A832012B1CD00346012200B50068E6
:1073A40083B083F8A822019301F0E0F8002210468C
:1073B400019B83F8A82203B000BD0123D11801EB7F
:1073C400810100EBC1014B700A7090F8A832012BC7
:1073D400E2D10220704700BF10B5002401F007017C
:1073E40001EB810E00EBCE0C8CF868118CF869412E
:1073F4000068CCF87C21CCE960340CF5B47101F060
:1074040083F9204610BD00BF38B5864615460122D3
:10741400002401F0070C0CEB8C000EEBC00003649D
:1074240083640CEB020380F84C2003EB8303C563F5
:1074340080F82920446480F828C00EEBC301DEF8EC
:10744400000001F061F9204638BD00BF10B5436863
:1074540001F007049C4282B032D80B061FD401EB22
:107464008101C90001F5B47243188118002283F820
:10747400692101220C708A7090F8A83293421CD0C2
:107484000346006883F8A822019301F05FFC019B86
:10749400CCB10022104683F8A82202B010BD01230B
:1074A4000122E11801EB810100EBC1014B700C706A
:1074B4008A7090F8A8329342E2D1022002B010BD43
:1074C400012002B010BD186803F52C7101F0B8FC5E
:1074D400019BDEE7436801F00F029A4235D810B5EC
:1074E4000B0682B001F007021ED4002402EB8203D3
:1074F400DB0003F5B471034483F8694100240144BB
:107504000A708C7090F8A832012B1BD0034601221C
:10751400006883F8A822019301F03CFC2046019BFB
:1075240083F8A84202B010BD01230024D11801EB56
:10753400810100EBC1014B700A708C7090F8A83285
:10754400012BE3D1022002B010BD0120704700BF1F
:1075540011F0800F0BD001F00701013101EB810123
:1075640000EBC1005AB9C38002730020704701EBDD
:10757400810100EBC10000F5B470002AF3D00122B0
:107584008360027300207047002800F0BA8170B550
:1075940003680446DA0782B035D59C494A6802F08C
:1075A4000C02042A00F0EF804A6802F00C02082A58
:1075B40000F0E5806368B3F5803F10D0002B00F045
:1075C4000D81B3F5A02F00F08781904B1A6822F447
:1075D40080321A601A6822F480221A6004E08B4A0E
:1075E400136843F480331360FDF7DCF9054605E0C6
:1075F400FDF7D8F9401B642800F2ED80834B1B682B
:107604009803F5D523689A0729D5804A516811F063
:107614000C0F00F08E80516801F00C01082900F075
:1076240084802369002B00F01C810122784B1A60AE
:10763400FDF7B8F9054605E0FDF7B4F9401B02284B
:1076440000F2C980714B1B689807F5D56F496269D0
:107654000B6823F0F80343EAC2030B6023681A079C
:107664001FD45D0742D5694BDA69D0007CD500266A
:10767400684B1B68D90540F19C80E368012B00F03E
:107684000181002B00F0CC80052B604B1A6A00F0BE
:10769400308122F001021A621A6A22F004021A628C
:1076A400F5E0A369002B4ED00122594BC3F8802486
:1076B400FDF778F9054605E0FDF774F9401B02284B
:1076C40000F28980514B5B6A9B07F5D5524B534AB4
:1076D4001B68A2FB03235B0A019300BF019B5A1E94
:1076E4000192002BF9D123685D07BCD4E369CBB1C7
:1076F400464A526802F00C02082A00F0DB8000229D
:10770400022B434B1A6600F0FE80FDF74BF904464A
:1077140004E0FDF747F9001B02285CD83B4B1B68CB
:107724009B01F6D4002002B070BD5268D6033FF529
:1077340078AF364A126895072FD52269012A2CD0D2
:10774400012002B070BD324AC2F88034FDF72AF934
:10775400054604E0FDF726F9401B02283BD82B4BD5
:107764005B6A9E07F6D4BEE7DA69012642F08052CE
:10777400DA61DB6903F080530093009B78E74A6881
:10778400D6037FF517AF214A126895037FF53BAF07
:107794006268002A7FF437AFD2E71C4960690A683F
:1077A40022F0F80242EAC0020A601A077FF559AFD4
:1077B40077E7184A136843F480731360FDF7F2F80F
:1077C4000546144B1B68DA053FF557AFFDF7EAF899
:1077D400401B6428F5D9032002B070BD0B4A13681E
:1077E40023F480331360136823F480231360FDF7BC
:1077F400D9F8054604E0FDF7D5F8401B6428EAD81B
:10780400024B1B689903F6D4FCE600BF001002404B
:10781400000042420070004014020020D34D621068
:10782400524A136A23F001031362136A23F0040318
:107834001362FDF7B7F8054606E0FDF7B3F841F229
:107844008833401B9842C6D8484B1B6A9807F4D427
:10785400002E3FF44BAF454AD36923F08053D361E4
:1078640044E7434A1360FDF79DF8054604E0FDF73D
:1078740099F8401B0228AED83C4B1B689907F6D4F4
:107884002368ECE6394A136A43F001031362FDF7F7
:1078940089F8054606E0FDF785F841F28833401B78
:1078A400984298D8314B1B6A9B07F4D5002E3FF4BD
:1078B4001DAFD0E7012B3FF443AF2C4B226A5B682A
:1078C40003F4803191427FF43BAF606A03F4701398
:1078D400181A18BF012026E703F18043A3F53C33AF
:1078E4001A6842F480221A601A6842F480321A60DC
:1078F4007AE642F004021A621A6A42F001021A623B
:10790400C5E701207047FDF74DF8054605E0FDF792
:1079140049F8401B02283FF65EAF144B1B689901DF
:10792400F5D4236AB3F5803F06D11048A1684268B4
:1079340022F400320A4342600120616A0B4C0B437B
:1079440062680B4922F47412134363600866FDF7FE
:1079540029F8044605E0FDF725F8001B02283FF648
:107964003AAF024B1B689A01F5D5DBE600100240E2
:107974000000424240F2012C00B5174B87B00DF1D4
:10798400180E0FCB0EE90F001449ADF804C04B6874
:1079940003F00C02042A16D0082A02D0104807B0BB
:1079A40000BDC3F383426A44DB03107A0ED54B68EF
:1079B4000C4AC3F3404302FB00F06B441B79B0FB59
:1079C400F3F007B000BD074807B000BD064B03FB4A
:1079D40000F007B000BD00BF9CB0000800100240DA
:1079E40000127A00001BB70000093D0078B14A4A32
:1079F400136803F007038B420BD2136823F00703C9
:107A04000B431360136803F007038B4201D001207A
:107A1400704703682DE9F0419A0714D55F0704D530
:107A24003E4C626842F4E06262601E0704D53B4C3F
:107A3400626842F460526260384C8568626822F081
:107A4400F0022A436260DD078846074620D5426873
:107A5400324B012A1B6859D0022A54D0990728D5E1
:107A64002E4C41F28835636823F0030313436360AB
:107A7400FCF798FF064604E0FCF794FF801BA8423D
:107A840047D863687A6803F00C03B3EB820FF3D131
:107A9400214A136803F0070343450DD9136823F003
:107AA400070343EA08031360136803F0070343451D
:107AB40002D00120BDE8F0813B685A0706D517497A
:107AC400F8684A6822F4E06202434A601B0707D55B
:107AD400124A3969536823F4605343EAC10353607B
:107AE400FFF748FF03460D4A0D4952680D48C2F39B
:107AF4000312895C0C4ACB4000681360FCF70CFF4E
:107B04000020BDE8F0819801AAD4D2E79C03A7D451
:107B1400CFE70320CEE700BF002002400010024060
:107B240008D500081C02002014020020044B054A5A
:107B34005B680549C3F30223CB5C1068D8407047E7
:107B4400001002401402002000D50008044B054A2E
:107B54005B680549C3F3C223CB5C1068D840704707
:107B6400001002401402002000D50008F0B503689C
:107B74000446D80783B02DD5384BDA69D1003FD5F8
:107B8400374D00272B68DA0548D5344D61682B6AD8
:107B940013F4407312D001F440729A420ED00020C4
:107BA4004FF0010C2B6A2F4A23F44071C2F840C4F1
:107BB400C2F84004D807296242D46168274A136A8C
:107BC40023F440730B4313621FB1D36923F0805332
:107BD400D36123689A0706D52049A0684A6822F42D
:107BE400404202434A60DB0602D4002003B0F0BDE9
:107BF4001A4A6169536823F480030B435360F4E722
:107C0400DA69174D42F08052DA61DB69012703F02B
:107C140080530193019B2B68DA05B6D42B6843F497
:107C240080732B60FCF7BEFE06462B68DB05ACD4E4
:107C3400FCF7B8FE801B6428F7D9032003B0F0BD1D
:107C4400FCF7B0FE06462B6A9907B6D4FCF7AAFEE9
:107C540041F28833801B9842F5D9EEE700100240C8
:107C6400007000400000424238B504462368E168D1
:107C74001A69256922F440520A431A61A268D96834
:107C84002A43656921F4B05121F00C012A430A43C7
:107C9400DA605A69A169134822F440720A438342A4
:107CA4005A611BD0FFF742FF636800EB800000EBD2
:107CB40080009B00B0FBF3F34FF0640C0A4920688A
:107CC400A1FB034252090CFB12331B013233A1FB0B
:107CD4000313120102EB5312826038BDFFF736FF23
:107CE400E2E700BF003801401F85EB5170B310B5C7
:107CF40090F83D30044603F0FF0213B324232268B6
:107D040084F83D30D368204623F40053D360FFF752
:107D1400ABFF4FF0000C2021236860461A6922F45F
:107D240090421A615A6922F02A025A61DA6842F4CE
:107D34000052DA60C4F840C084F83D1084F83E1064
:107D440010BD80F83C20FCF72FFAD7E701207047DC
:107D540010B5044690F83D00202836D199B392B36B
:107D640094F83C00012830D04FF0010E4FF0210C64
:107D740084F83CE04FF0000EE284606BC4F840E00D
:107D840084F83DC0DFF848C0A2842162134622680B
:107D9400C0F828C0DFF83CC00432C0F82CC0DFF8BB
:107DA40038C0C0E90CCEFCF7C5FE6FF04002236872
:107DB40000201A604FF0000284F83C205A6942F017
:107DC40080025A6110BD012010BD022010BD00BF09
:107DD400E17D0008117E0008257E000808B50368CF
:107DE400406A1B6813F020030AD10268C3845369F4
:107DF40023F080035361D36843F04003D36008BD8C
:107E0400FBF74AFE08BD00BF704700BF08B5406AD3
:107E1400FFF7FAFF08BD00BF704700BF704700BFFF
:107E240008B5406A0368596990F83D20212A0BD0AF
:107E3400596990F83E20222A16D0036C43F01003AF
:107E44000364FFF7EBFF08BD0906F1D500222021EA
:107E5400C284DA6822F0C002DA6080F83D10596901
:107E640090F83E20222AE8D14A06E6D50022C285AF
:107E7400DA6822F49072DA605A6922F001025A61D7
:107E8400026B012A03D1DA6822F01002DA602022A0
:107E9400002380F83E200363CFE700BF08B500232A
:107EA400406AC385C384FFF7B9FF08BD704700BFAC
:107EB40090F83E30222B3DD183680168B3F5805F92
:107EC400826A38D0002B3FD10369002B3CD14B6828
:107ED4001370826A0132C38D8262013B9BB2C385F7
:107EE40043BB4FF0200C026800B5D16883B021F089
:107EF4002001D160D16821F48071D160516921F0F1
:107F04000101516180F83EC0016B012920D1036356
:107F1400D16821F01001D1601168C90605D501931B
:107F24001368019353680193019B818DFFF7BEFF92
:107F340003B000BD70470369002BC8D14B68C3F37D
:107F4400080322F8023BC6E74B6803F07F03BFE750
:107F5400FFF762FF03B000BD026800B51168034675
:107F640011F00F0FD2F80CE085B0D2F814C017D17D
:107F740011F0200F03D01EF0200F40F0D180186BB9
:107F8400012848D0080603D51EF0800F40F09D80DC
:107F9400490603D51EF0400F40F0B68005B000BD81
:107FA4001CF001007BD11EF4907FE8D011F0010F8A
:107FB4000FD01EF4807F00F03081D3F840C011F060
:107FC400040F4CF0010CC3F840C000F0BA80002844
:107FD4006AD111F0020F00F0B780080700F1F280B7
:107FE400186C0028DAD0880603D51EF0200F40F064
:107FF40019815169186C01F0400100F00800014337
:1080040040F0B080184601910093FFF707FFDDE9C7
:1080140000311964C2E7C806B4D51EF0100FB1D000
:108024004FF0000ECDF80CE01168039151680391F4
:108034000399516911F0400C00F0CD80986B0168F0
:10804400496889B20029A9D0B3F82CC08C45A5D9B8
:10805400D985816920291AD0D168009321F48071CF
:10806400D160516921F001015161516921F0400150
:108074005161202183F83E10C3F830E0D16821F02B
:108084001001D160FCF79EFD009BB3F82CC0DA8D83
:108094001846ACEB020189B2FFF708FF7EE711F046
:1080A400010F47D1480740D5186C40F0020018640E
:1080B40088073CD5186C40F00400186408078FD575
:1080C400186C40F0080018648AE793F83D102129E1
:1080D4007FF464AF9868196AB0F5805F00F0A980F6
:1080E400481C186209785160D98C013989B2D98445
:1080F40000297FF453AFD36823F08003D360D3689F
:1081040043F04003D36049E74FF0200CD168184690
:1081140021F04001D16083F83DC0FBF7BDFC3DE791
:1081240005B05DF804EBFFF7C3BE8807C2D40807A7
:10813400C6D455E71EF4807F7FF43FAF11F0040FDF
:10814400B2D111F0020F42D111F0080F3FF448AF41
:108154000EF0200C5CEA000CB2D1196C00297FF4FB
:1081640048AF1BE7D16821F49071D160516921F0C7
:1081740001015161196B012903D1D16821F010016A
:10818400D1600021202083F83E001963516949061B
:1081940014D55169986B21F04001516170B12A4A9C
:1081A40000934263FCF732FD00283FF4F7AE009BD6
:1081B400986B436B05B05DF804EB18471846FFF75E
:1081C4002DFEEBE61EF0200F7FF47AAFC5E7002802
:1081D4003FF403AF6EE7D88DD98D89B200293FF4FF
:1081E400DDAE998D091A89B200293FF4D7AE4FF05C
:1081F400200ED06820F49070D060506920F0010007
:10820400506183F83EE0C3F830C01846D36823F0C9
:108214001003D360FFF74AFEC0E611F0040F7FF4A9
:10822400D8AE8EE718460093FFF742FE009B1A680B
:10823400DFE6186900287FF453AF31F8020BC0F36E
:108244000800506019624FE7A17E000884B001A8BD
:1082540080E80E0004B00020704700BF03460022EF
:108264004FF43F41A3F844201046A3F84010704750
:10827400034644F2FF01B3F8402000200A40A3F86B
:10828400402070470020704784B00DF1040C8CE846
:108294000E000346002201211046A3F8401004B04A
:1082A400A3F84020A3F84420A3F85020704700BF4F
:1082B40030B50A7891F803E030F822C003462CF474
:1082C400EC4C2CF0700CBEF1030F00F24A81DFE895
:1082D4000EF0544C0250002548F280044CEA040C81
:1082E40023F822C033F822C003EB02102CF4E04C34
:1082F4002CF0700C42EA0C0C44EA0C0423F82240E3
:108304000C7B002C7CD1CC8891F801C064086400FB
:10831400BCF1000F00F0D080B3F8501089B20144D2
:10832400A1F8004433F822104C060BD533F8221080
:1083340021F4E04121F0700141F4004141F0C00119
:1083440023F8221033F82210BEF1010F21F4E0418A
:1083540021F040014CD081F0200141F4004141F072
:108364008001284623F8221030BD00254CF4806C8F
:10837400B2E700254CF4C06CAEE775464CF4007CC3
:10838400AAE733F8221048040BD533F8221021F45D
:10839400E04121F0700141F4404141F0800123F8B3
:1083A400221033F8221049060BD533F8221021F499
:1083B400E04121F0700141F4004141F0C00123F893
:1083C400221033F82210BEF1010F21F4E04121F014
:1083D400400118BF81F0200141F4004141F08001C7
:1083E40023F8221033F8221021F4804121F0700187
:1083F40041F4004141F08001284623F8221030BDA9
:1084040033F822C02CF4E04C2CF0700C4CF4014CEA
:108414004CF0800C23F822C0B3F85040B1F808C0E7
:10842400A4B24FEA5C0C04444FEA4C0CA4F800C418
:10843400B3F85040A4B220444C8964086400A0F806
:108444000844497800299CD133F8221049040BD5FB
:1084540033F8221021F4E04121F0700141F440414D
:1084640041F0800123F8221033F822104C060BD57A
:1084740033F8221021F4E04121F0700141F400416D
:1084840041F0C00123F8221048F2800033F8221092
:1084940021F4804121F0700181F44051014323F81B
:1084A400221033F8221021F4E04121F04001084366
:1084B40023F82200284630BDD1F810C0B3F850107C
:1084C40089B20144A1F80844B3F8501089B20144B8
:1084D400BCF1000F29D0BCF13E0F35D80CF00100DF
:1084E40000EB5C008002A1F80C0433F8221048046D
:1084F4000BD533F8221021F4E04121F0700141F44E
:10850400404141F0800123F8221033F8221028461C
:1085140021F4804121F0700181F4405141F4004183
:1085240041F0800123F8221030BDB1F80C0420F48E
:10853400F840A1F80C04B1F80C046FEA40406FEA6B
:108544005040A1F80C04D0E74FEA5C1406481CF034
:108554001F0F08BF04F1FF3440EA8420A1F80C0483
:10856400C3E70125B8E600BF0080FFFF91F80CC007
:108574004A780B78BCF1000F15D1002A00F09980DD
:1085840030F82320510600F1B28030F8232022F481
:10859400E04222F0400242F4004242F0800220F81D
:1085A400232000207047002A41D130F823205104B1
:1085B4000BD530F8232022F4E04222F0700242F47A
:1085C400404242F0800220F8232030F82320520653
:1085D4000BD530F8232022F4E04222F0700242F45A
:1085E400004242F0C00220F8232048F2800130F813
:1085F400232022F4E04222F0700242F4004242F0CE
:10860400C00220F8232030F8232022F4804222F0F4
:1086140070020A4320F8232030F8232022F4E04299
:1086240022F04002114320F823100020704730F854
:10863400232051040BD530F8232022F4E04222F009
:10864400700242F4404242F0800220F8232030F8C5
:10865400232052060BD530F8232022F4E04222F0E6
:10866400700242F4004242F0C00220F8232048F293
:10867400800130F8232022F4E04222F0700242F418
:10868400404242F0800220F8232030F8232022F4D4
:10869400E04222F040020A4320F8232030F823204D
:1086A40022F4804222F07002114320F823100020AB
:1086B400704730F8232052040BD530F8232022F4DD
:1086C400E04222F0700242F4404242F0800220F87C
:1086D400232030F8232022F4804222F0700242F456
:1086E400004242F0800220F823200020704730F836
:1086F400232022F4E04222F0700242F4004242F0CD
:10870400C00220F8232040E72DE9F04F4B7891F880
:108714000CE0012B83B072D0BEF1000F37D0CA78C1
:10872400022A00F06381012A40F0FA808A69D1F8B4
:1087340010C0624594BF4FF0000EA2EB0C0EC1F8BE
:1087440018E088BF6246002B40F02882B0F850E061
:108754000B781FFA8EFE00F2044CF4441B0100F265
:108764000C4E002A00F04C823E2A00F2088202F0ED
:10877400010404EB520292022CF80320B0F850C01A
:108784001FFA8CFCF4442CF803200A7825E0D1F875
:1087940018C00A69944592BF7346ACEB0203944631
:1087A400B0F850E08B610B781FFA8EFE00F20C4299
:1087B4001B017244BCF1000F40F0A48032F803C0E6
:1087C4002CF4F84C22F803C032F803C06FEA4C4C86
:1087D4006FEA5C4C22F803C00A7830F8223023F4A4
:1087E400804323F0700383F4405343F4004343F085
:1087F400800320F82230002003B0BDE8F08F0B691D
:108804008A691F469A4228BF1A4600F580664B695A
:10881400BEF1000F00F02C81CC7891F800C0022C3E
:10882400D1F820E04FEA0C187ED0AEEB020430F809
:108834002CE0A2462EF4E04E2EF0700E4EF4014EC3
:108844004EF0800E20F82CE030F82CE00C6294B24C
:1088540004F1010C1EF0400FB0F850E000944FEA10
:108864005C04A14693461FFA8EFC00F0408100F29E
:108874000C4EE6442EF80820002C00F05A8203EB3C
:108884004404B1F80AC0054689469E461146184676
:10889400224606EB4C0C3EF8023B72452CF8043B96
:1088A400F9D1431857450A4628464946C9F81430B1
:1088B400C0F07B814FF00009C1F82090BAF1000F9D
:1088C40000F0F680D3461FFA8AF20092009A02F171
:1088D400010EB0F850205FEA5E0E1FFA82FC00F22F
:1088E4000442624422F808B000F0E2800A8906EBF0
:1088F400420202EB8E0E33F802CB22F804CB9645EB
:10890400F9D1D5E0BCF13E0F00F2E2800CF0010E8B
:108914000EEB5C0C4FEA8C2C22F803C00A785CE75F
:10892400012003B0BDE8F08F774500F2044A80F0DF
:10893400B481AEEB020430F82CE000942EF4E04E47
:108944002EF0700E4EF4014E4EF0800E20F82CE006
:1089540030F82CC01FFA82FE0EF1010E1CF0400FFD
:10896400B0F850C00C6200F20C454FEA5E04A14618
:108974009646934601951FFA8CFC00F05481AC4452
:108984002CF80820A4B105469C461846B1F80AE024
:10899400019106EB4E0E11460EEB84023CF8023BAD
:1089A4002EF8043B7245F9D1034628460A4601993C
:1089B400009D1344AF424B6180F0A081009CA21A39
:1089C4000A62B0F8502092B2524422F808B0B9F1C9
:1089D400000F6DD00A8906EB420202EB890E33F8D0
:1089E40002CB22F804CB9645F9D161E013BBB0F871
:1089F40050C000F204421FFA8CFC0B786244D1F898
:108A040010C01B0100F20C4EBCF1000F00F0D78027
:108A1400BCF13E0F00F266810CF0010404EB5C0C27
:108A24004FEA8C2C22F803C0B0F8502092B2724462
:108A340022F803C0CB690A78002B3FF4CEAE30F89D
:108A440022305C0403F0400C00F1B480BCF1000F50
:108A54007FF4C3AE30F8223023F4E04323F07003F4
:108A640043F4004343F0C00320F822300A78B4E60C
:108A74001FFA82FE0EF1010E15465FEA5E020BD06C
:108A8400B1F806E006EB4E0C0CEB820233F802EB75
:108A94002CF804EB6245F9D1B0F8502091F800C0ED
:108AA40092B200F204434FEA0C1C13442CF8035016
:108AB4000A7830F8223023F4E04323F0400383F0B3
:108AC400300343F4004343F0800320F8223092E65D
